:020000040800F2
:10000000580A0020010100085D1B00089D1A000825
:10001000591B000891010008992000080000000009
:10002000000000000000000000000000C51B0008E8
:10003000D502000800000000991B0008C71B00083B
:100040001B0100081B0100081B0100081B01000820
:100050001B0100081B0100081B0100081B01000810
:100060001B0100081B0100081B0100081B01000800
:100070001B0100081B0100081B0100081B010008F0
:100080001B0100081B0100081B0100081B010008E0
:100090001B0100081B0100081B0100081B010008D0
:1000A0001B0100081B0100081B0100081B010008C0
:1000B0001B0100081B010008000000001B010008D4
:1000C0001B01000800000000000000001B010008E8
:1000D00000000000512000081B0100080000000083
:1000E0001B0100081B0100081B010008DFF80CD0F1
:1000F00000F03CF800480047FD200008580A0020A6
:100100000648804706480047FEE7FEE7FEE7FEE7B1
:10011000FEE7FEE7FEE7FEE7FEE7FEE7611C0008FC
:10012000ED00000840EA01039B0703D009E008C97D
:10013000121F08C0042AFAD203E011F8013B00F8AC
:10014000013B521EF9D27047D2B201E000F8012BF8
:10015000491EFBD270470022F6E710B513460A4647
:1001600004461946FFF7F0FF204610BD064C074D28
:1001700006E0E06840F0010394E807009847103477
:10018000AC42F6D3FFF7B6FF00280008202800088D
:1001900000BFFEE72DE9F04104460D460126002789
:1001A0004FF0000800BF2078F5281BD160785F2849
:1001B00018D1A81E205C5F2814D1681E205CF52889
:1001C00010D1A5F1080081B2201D01F079FF07468A
:1001D000281F215CE81E205C41EA0028B84503D0B6
:1001E000022602E0022600E000BF00BF3046BDE864
:1001F000F0812DE9F05F0446884691461E464FF097
:10020000000A00254FF0010B002700BFF522284609
:100210006D1C22540A2228466D1C2254F01CC2B2C6
:1002200028466D1C225428466D1C04F8008000BF2F
:1002300005E019F8072028466D1C22547F1CB742A0
:10024000F7D3E81E81B2E01C01F03AFF824629464E
:100250006D1C04F801A04FEA1A2228466D1C225496
:1002600000BF5846BDE8F09F2DE9F05F04460F46F9
:1002700090464FF0010A0026B34600BF2078F528CB
:1002800023D160785F2820D1A078E17840EA012668
:10029000311D2046FFF77EFF8246BAF1010F01D0E3
:1002A00000BF13E094F805904F450BD1002504E002
:1002B000A81D205C08F805006D1CB01FA842F7D8E7
:1002C000834602E04FF0000B00E000BF00BF58463D
:1002D000BDE8F09F704710B50446204600F05AF87C
:1002E00010BD000070B50446002594F821000228D6
:1002F00003D00420A063012548E02068006820F0B6
:100300000E00216808602068006820F00100216864
:1003100008601F492068884201D1012026E01C495D
:1003200014312068884201D110201FE0184928317B
:100330002068884201D1801518E015493C312068B9
:10034000884201D1801411E011495031206888425F
:1003500002D14FF4803009E00D49643120688842B1
:1003600002D14FF4801001E04FF080700849083945
:100370004860012084F8210000BF002084F820009C
:1003800000BF606B10B12046616B8847284670BD86
:100390000800024070B5044600F09AF9064625466A
:1003A000681C10B104480078054400BF00F090F9C3
:1003B000801BA842FAD370BD0C0000202DE9F8473D
:1003C000034600240020002584460027002266E121
:1003D0004FF0010808FA02F4D1F8008008EA04009E
:1003E000A0427DD1DFF8C0A2D1F80480A8EB0A09B1
:1003F000D0453AD014DCB8F1030F50D009DCB8F185
:10040000000F31D0B8F1010F1CD0B8F1020F49D163
:1004100020E0B8F1110F18D0B8F1120F42D11EE050
:10042000B9F5881F25D006DCB9F5803F20D0B9F595
:10043000801F37D11AE0B9F5001F18D0B9F5041F95
:1004400030D117E0D1F80CC02DE0D1F80C8008F1C4
:10045000040C28E0D1F80C8008F1080C23E0D1F856
:100460000C8008F10C0C1EE000BF00BF00BF00BFF5
:1004700000BF00BFD1F80880B8F1000F02D14FF0E3
:10048000040C0BE0D1F80880B8F1010F03D14FF054
:10049000080C1C6102E04FF0080C5C6103E04FF0B7
:1004A000000C00E000BF00BFFF2801D8984601E023
:1004B00003F104084646FF2802D84FEA820803E009
:1004C000A2F108084FEA88084746D6F800804FF0A6
:1004D0000F0909FA07F928EA09080CFA07F900E0F8
:1004E00085E048EA0908C6F80080D1F8048008F0E1
:1004F0008058B8F1805F7AD100BFDFF8B081D8F8BA
:10050000188048F00108DFF8A491C9F81880C8469F
:10051000D8F8188008F00108CDF8008000BF00BFAF
:100520004FEAB9384FEA920958F829504FEA8278D1
:100530004FEA18794FF00F0808FA09F825EA08057C
:10054000DFF86C81434502D14FF000080FE0DFF87F
:100550006481434502D14FF0010808E0DFF858817B
:10056000434502D14FF0020801E04FF003084FEA83
:1005700082794FEA197908FA09F848EA0505DFF89F
:100580003C814FEA920948F82950D1F8048008F4D8
:100590008038B8F5803F0AD1DFF82481D8F8008090
:1005A00048EA0008DFF81891C9F8008009E0DFF890
:1005B0001081D8F8008028EA0008DFF80491C9F813
:1005C0000080D1F8048008F40038B8F5003F0FD15E
:1005D000DFF8EC8008F10408D8F8008048EA000849
:1005E000DFF8DC9009F10409C9F800800EE055E05D
:1005F000DFF8CC8008F10408D8F8008028EA000869
:10060000DFF8BC9009F10409C9F80080D1F8048032
:1006100008F48018B8F5801F0ED1DFF8A48008F127
:100620000808D8F8008048EA0008DFF8949009F13B
:100630000809C9F800800DE0DFF8848008F1080897
:10064000D8F8008028EA0008DFF8749009F108095A
:10065000C9F80080D1F8048008F40018B8F5001F2C
:100660000ED1DFF85C8008F10C08D8F8008048EA69
:100670000008DFF84C9009F10C09C9F800800DE082
:10068000DFF83C8008F10C08D8F8008028EA000860
:10069000DFF82C9009F10C09C9F80080521C102ACF
:1006A000FFF496AEBDE8F88700001110001002407C
:1006B00000080140000C014000100140080001400A
:1006C000000401400AB1016101E00B0403617047BD
:1006D00001480068704700000400002003480068DB
:1006E0000349097808440149086070470400002064
:1006F0000C00002010B50848006840F010000649C2
:100700000860032000F0D0F8002000F007F800F0A7
:100710002BF8002010BD00000020024070B50446F8
:100720000E4800784FF47A71B1FBF0F00C4909687B
:10073000B1FBF0F5284600F042FC08B1012070BD85
:10074000102C07D200222146501E00F06EF80548FA
:10075000046001E00120F2E70020F0E70C00002037
:10076000100000200800002008B500BF264880695E
:1007700040F00100244988610846806900F00100CA
:10078000009000BF00BF00BF0846C06940F0805025
:10079000C8610846C06900F08050009000BF00BFEB
:1007A000032000F081F8002211466FF00B0000F0EA
:1007B0003CF8002211466FF00A0000F036F80022E3
:1007C00011466FF0090000F030F800221146501F6A
:1007D00000F02BF800221146101F00F026F800222E
:1007E0001146901E00F021F800221146501E00F024
:1007F0001CF800BF0549486820F0E06040F08070B8
:10080000486000BF08BD0000001002400000014029
:1008100000BF00F01F02012191404209920002F145
:10082000E022C2F8001100BF70472DE9F05F80465A
:100830000D461646002701F093F9074639462A4629
:10084000334601F00700C0F1070ABAF1040F02D9DC
:100850004FF0040A01E0C0F1070AD14600F1040A92
:10086000BAF1070F02D24FF0000A01E0A0F1030A2B
:10087000D4464FF0010A0AFA09FAAAF1010A0AEA73
:10088000020A0AFA0CFA4FF0010B0BFA0CFBABF15F
:10089000010B0BEA030B4AEA0B042146404601F028
:1008A00067F9BDE8F09F000000BF00F00702064BAB
:1008B00019684FF6FF031940044B0B4343EA02212A
:1008C000014B196000BF70470CED00E00000FA0515
:1008D00070B504460D4600266248006800F0070027
:1008E000A8420ED25F48006820F0070028435D4907
:1008F00008600846006800F00700A84201D0012007
:1009000070BD207800F00200022807D156484068E8
:1009100020F0F000A168084353494860207800F0B7
:10092000010000285DD06068012806D14E480068AB
:1009300000F4003090B90120E2E76068022806D197
:100940004948006800F0007040B90120D8E74648E7
:10095000006800F0020008B90120D1E74248406871
:1009600020F00300616808433F494860FFF7B0FE8C
:1009700006466068012810D108E0FFF7A9FE801B39
:1009800041F28831884201D90320B9E736484068EE
:1009900000F00C000428F0D123E06068022810D198
:1009A00008E0FFF795FE801B41F28831884201D9AB
:1009B0000320A5E72C48406800F00C000828F0D17F
:1009C0000FE008E0FFF784FE801B41F28831884287
:1009D00001D9032094E72448406800F00C00002867
:1009E000F0D12048006800F00700A8420ED91D4849
:1009F000006820F0070028431A490860084600688C
:100A000000F00700A84201D0012079E7207800F02B
:100A10000400042807D11448406820F4E060E1682D
:100A2000084311494860207800F00800082808D1E0
:100A30000D48406820F46050216940EAC1000A492D
:100A4000486000F03DF808494968C1F30311074ABE
:100A5000515CC840064908600020FFF75FFE002097
:100A60004EE700000020024000100240E82100088C
:100A700010000020014800687047000010000020AE
:100A800000B5FFF7F7FF04494968C1F30221034AA3
:100A9000515CC84000BD000000100240F821000871
:100AA00000B5FFF7E7FF04494968C1F3C221034AD3
:100AB000515CC84000BD000000100240F821000851
:100AC000F0B585B00FF26C0C9CE8E01001A8A0E82E
:100AD000E0101CA52D6800950021002200230024B1
:100AE0000020194D696801F00C05F5B1042D02D004
:100AF000082D19D101E0154819E001ADC1F3834675
:100B0000AC5D01F4803555B10F4D6D68C5F34045BE
:100B10001DF805200D4D6543B5FBF2F302E00C4DC9
:100B200004FB05F3184602E000BF084800BF00BF01
:100B300005B0F0BD02030405060708090A0B0C0DF9
:100B40000E0F1010010200000010024000127A0087
:100B500000093D00F8B504460025207800F00100AA
:100B6000002878D0F848406800F00C0004280CD029
:100B7000F548406800F00C00082811D1F2484068A0
:100B800000F48030B0F5803F0AD1EF48006800F4EF
:100B9000003000285FD0606800285CD10120F8BDDB
:100BA00000BF6068B0F5803F06D1E748006840F4B8
:100BB0008030E549086028E0606858B9E24800687C
:100BC00020F48030E04908600846006820F4802066
:100BD00008601AE06068B0F5A02F0BD1DA48006811
:100BE00040F48020D84908600846006840F480300E
:100BF00008600AE0D448006820F48030D2490860D8
:100C00000846006820F48020086000BF606888B152
:100C1000FFF75EFD054606E0FFF75AFD401B64281E
:100C200001D90320BBE7C848006800F40030002861
:100C3000F2D010E0FFF74CFD054606E0FFF748FD57
:100C4000401B642801D90320A9E7BF48006800F4CD
:100C500000300028F2D1207800F00200022857D19D
:100C6000B948406800F00C0050B1B748406800F047
:100C70000C00082818D1B448406800F4803098B9B6
:100C8000B148006800F0020020B12069012801D0BD
:100C9000012084E7AC48006820F0F800616940EA70
:100CA000C100A949086033E02069E8B10120A749E3
:100CB0000860FFF70DFD054606E0FFF709FD401B44
:100CC000022801D903206AE79F48006800F002006B
:100CD0000028F2D09C48006820F0F800616940EAE2
:100CE000C1009949086013E0002098490860FFF7A7
:100CF000EFFC054606E0FFF7EBFC401B022801D99C
:100D000003204CE79048006800F002000028F2D170
:100D1000207800F0080008282DD1A069B8B1012082
:100D20008B490860FFF7D4FC054606E0FFF7D0FCCE
:100D3000401B022801D9032031E78348406A00F0B4
:100D400002000028F2D0012000F028FF13E000206C
:100D50007F490860FFF7BCFC054606E0FFF7B8FCDA
:100D6000401B022801D9032019E77748406A00F0A8
:100D700002000028F2D1207800F00400042873D18A
:100D800000267148C06900F0805070B900BF6E48FD
:100D9000C06940F080506C49C8610846C06900F0E5
:100DA0008050009000BF00BF01266A48006800F430
:100DB0008070B0B96748006840F480706549086089
:100DC000FFF786FC054606E0FFF782FC401B64281F
:100DD00001D90320E3E65F48006800F48070002832
:100DE000F2D000BFE068012806D15748006A40F001
:100DF00001005549086227E0E06858B95248006A86
:100E000020F00100504908620846006A20F0040002
:100E1000086219E0E06805280BD14B48006A40F0F1
:100E20000400494908620846006A40F0010008626F
:100E30000AE04548006A20F001004349086208467C
:100E4000006A20F00400086200BFE068A0B1FFF76C
:100E50003FFC054609E0FFF73BFC401B41F28831AF
:100E6000884202D903209AE622E03748006A00F05F
:100E700002000028EFD012E0FFF72AFC054608E048
:100E8000FFF726FC401B41F28831884201D903203C
:100E900085E62D48006A00F002000028F0D1012EFE
:100EA00005D12948C06920F080502749C86100BF9A
:100EB000E069C8B32448406800F00C00082860D0FE
:100EC000E069022848D1002020490866FFF700FCAD
:100ED000054606E0FFF7FCFB401B022801D9032072
:100EE0005DE61948006800F000700028F2D1206A21
:100EF000B0F5803F07D11448406820F40030A16865
:100F0000084311494860D4E9080108430E4949687B
:100F100021F4741108430C49486001200B4908660C
:100F2000FFF7D6FB054607E02DE0FFF7D1FB401B9E
:100F3000022801D9032032E60348006800F000705F
:100F40000028F2D01FE000000010024000004242E2
:100F5000800442420070004000200C490866FFF700
:100F6000B7FB054606E0FFF7B3FB401B022801D99B
:100F7000032014E60648006800F000700028F2D153
:100F800001E001200BE6002009E6000000004242DB
:100F900000100240042808D14FF0E021096941F017
:100FA00004014FF0E022116107E04FF0E0210969F0
:100FB00021F004014FF0E02211617047704770B5D5
:100FC00004462546681EB0F1807F01D301200FE062
:100FD000681E4FF0E02148610F214FF0FF3000F014
:100FE000C7FD00204FF0E021886107200861002044
:100FF00070BD10B5FFF7E2FF10BD2DE9F047804648
:101000000D4614461E464FF00109002700BFA9B245
:101010006422404601F032F864220421204601F0A7
:101020001FF82078F52802D160785F2802D04FF0B1
:10103000020909E0A078E17840EA01273946324602
:10104000201D01F00DF800BF00BF4846BDE8F08745
:10105000704700002DE9F0470446206805682068C5
:10106000C668206847694FF00008C14605F00F08C0
:10107000B8F1000F0AD105F0200038B106F02000C9
:1010800020B1204600F042FEBDE8F087B8F1000F25
:101090006DD007F0010018B906F49070002866D0F2
:1010A00005F0010030B106F4807018B1E06B40F03B
:1010B0000100E06305F0040030B107F0010018B151
:1010C000E06B40F00200E06305F0020030B107F091
:1010D000010018B1E06B40F00400E06305F0080087
:1010E00030B107F0010018B1E06B40F00800E06398
:1010F000E06B68B305F0200028B106F0200010B1C5
:10110000204600F003FE20684069C0F38019E06BC0
:1011100000F0080010B9B9F1000F22D0204600F00D
:10112000D5FD2068406900F04000B0B120684069FA
:1011300020F0400021684861606B50B11748616B36
:101140004863606BFFF7CEF810B1606B416B884766
:101150000CE02046FFF77CFF08E02046FFF778FF11
:1011600004E02046FFF774FF0020E0638CE705F001
:10117000800030B106F0800018B1204600F0FEFE7D
:1011800082E705F0400030B106F0400018B120467B
:1011900000F0ACFD78E700BF76E70000B91C00085E
:1011A00010B504460CB9012010BDA06900B100E0E3
:1011B00000BF94F8390028B9002084F83800204690
:1011C00000F028F8242084F839002068C06820F452
:1011D00000502168C860204600F0ECFD20680069DE
:1011E00020F49040216808612068406920F02A00BE
:1011F000216848612068C06840F400502168C860D8
:101200000020E063202084F8390084F83A000020B0
:10121000CAE7000010B586B0044618492068884225
:1012200029D100BF1648806940F480401449886184
:101230000846806900F48040019000BF00BF481557
:101240000290022003900320059002A90D48FFF7A9
:10125000B5F84FF48060029000200390049002A93A
:101260000848FFF7ABF8002201212520FFF7DDFA3F
:101270002520FFF7CDFA06B010BD00000038014070
:1012800000100240000801402DE9F84304460D46D5
:1012900016461F464FF0000994F83A00202860D106
:1012A00005B116B90120BDE8F88300BF94F83800F5
:1012B000012801D10220F6E7012084F8380000BFA0
:1012C0000020E063222084F83A00FFF701FA81460B
:1012D000A685E68539E0E08D401EE085A068B0F582
:1012E000805F1BD14B46002220212046009700F052
:1012F00079FE08B10320D6E7A846206938B92068EE
:101300004068C0F30800A8F80000AD1C1DE020688C
:101310004068C0B2A8F800006D1C16E04B460022E1
:1013200020212046009700F05DFE08B10320BAE7B7
:10133000206920B92068406805F8010B05E02068A5
:10134000406800F07F0005F8010BE08D0028C2D155
:10135000202084F83A0000BF002084F8380000BF45
:10136000A1E702209FE710B5034693F83A00202832
:101370002FD101B10AB9012010BD00BF93F8380088
:10138000012801D10220F7E7012083F8380000BFCF
:1013900099629A85DA850020D863222083F83A0082
:1013A00000BF002083F8380000BF1868C06840F410
:1013B00080701C68E0601868406940F001001C689B
:1013C00060611868C06840F020001C68E060002080
:1013D000D2E70220D0E700000121014A11707047D6
:1013E000000000202DE9F84304460D4616461F462E
:1013F0004FF0000994F8390020285CD105B116B9E6
:101400000120BDE8F88300BF94F83800012801D11D
:101410000220F6E7012084F8380000BF0020E063D6
:10142000212084F83900FFF753F98146A684E68429
:101430002BE0E08C401EE084A068B0F5805F16D100
:101440004B46002280212046009700F0CBFD08B1DA
:101450000320D6E7A846B8F80000C0F308002168CA
:101460004860206908B9AD1C0FE06D1C0DE04B46CB
:10147000002280212046009700F0B4FD08B103202F
:10148000BFE715F8010B21684860E08C0028D0D137
:101490004B46002240212046009700F0A3FD08B1F2
:1014A0000320AEE7202084F8390000BF002084F834
:1014B000380000BFA5E70220A3E77047F0B5ADF5FF
:1014C000457D064600240125290280A8FEF743FE3B
:1014D000290240A8FEF73FFE29026846FEF73BFEC0
:1014E000002700BFFF222046611CCCB2C0A90A54CD
:1014F00002222046611CCCB2C0A90A542346C0AACD
:10150000BA2180A8FEF775FE0546012D00D018E02F
:101510004FF4FA7340AAA11D80A8FFF76EFD05469F
:10152000012D00D00DE06A46BA2140A8FEF79CFECE
:1015300007461FB19DF80000307001E0022500E071
:1015400000BF00BF28460DF5457DF0BD2DE9F041F7
:10155000ADF5467D07460C4600250126310281A8DF
:10156000FEF7F9FD310241A8FEF7F5FD310201A8B1
:10157000FEF7F1FDA84600BF2846691CCDB2C1A9FF
:101580000F542B46C1AAA02181A8FEF732FE0646C1
:10159000012E00D029E04FF4FA7341AAA91D81A8B9
:1015A000FFF72BFD0646012E00D01EE001AAA02168
:1015B00041A8FEF759FE8046B8F1000F12D09DF801
:1015C000040020709DF8050060709DF80600A07072
:1015D0009DF80700E0709DF8080020719DF8090053
:1015E000607101E0022600E000BF00BF30460DF54B
:1015F000467DBDE8F0817CB50446012500BF002191
:10160000FF2000F0F9F94FF47A70FEF764FE2046EF
:10161000FFF754FF012801D002251AE0207869461F
:10162000FFF794FF012801D0022512E09DF8030086
:10163000012803D19DF80400072801D0022508E005
:101640000121002000F086F9012801D0022500E0E8
:1016500000BF00BF28467CBD2DE9F84F04460D466B
:10166000164601274FF000094FF0000A4FF000081E
:101670004FF0000B00200090307000BF2078F5285C
:1016800002D160785F2801D002275FE1A078E1787D
:1016900040EA012909F104012046FEF77BFD0746D7
:1016A000012F00D052E194F805A0BAF1160F03D033
:1016B000BAF1190F7ED109E101203070A179E079EA
:1016C00001EB00201FFA80F808F0FF0BE07A00061B
:1016D000A17A40EA0140617A40EA0120217A084378
:1016E00000900020EEE04FEA282105EB4012117037
:1016F00005EB40120099D183182101EB4011891D9F
:10170000625C182101EB4011C91D615C02EB0121F3
:1017100005EB40125170182101EB40110831625C59
:10172000182101EB40110931615C02EB012105EB4D
:1017300040125180182101EB40110A31625C1821DE
:1017400001EB40110B31615C02EB012105EB401212
:101750009180182101EB40110C31625C182101EBE2
:1017600040110D31615C02EB012105EB4012D1808B
:10177000182101EB40110E31625C182101EB401180
:101780000F31615C02EB012105EB40121181182140
:1017900001EB40111031625C182101EB4011113155
:1017A000615C02EB012105EB40125181182101EB34
:1017B000401100E0C6E01231625C182101EB4011DB
:1017C0001331615C02EB012105EB4012918218217B
:1017D00001EB40111431625C182101EB401115310D
:1017E000615C02EB012105EB40129175182101EBC0
:1017F00040111631625C182101EB40111731615C18
:1018000002EB012105EB40129181182101EB4011FF
:101810001831625C182101EB40111931615C02EB57
:10182000012105EB4012D181182101EB40111A3141
:10183000625C182101EB40111B31615C02EB01215C
:1018400005EB40121182182101EB40111C31625C42
:10185000182101EB40111D31615C02EB012105EB08
:1018600040125182182101EB40111E31625C182197
:1018700001EB40111F31615C02EB012105EB4012CD
:101880001183182101EB40112031625C182101EB1A
:1018900040112131615C02EB01218AB205EB40115C
:1018A0004A83182101EB40112231625C182101EBBF
:1018B00040112331615C02EB01218AB205EB40113A
:1018C0008A83401C5845FFF60EAF3DE0042030707F
:1018D000217A607A01EB00202880A17AE07A01EB7E
:1018E00000206880217B607B01EB0020A880A17B29
:1018F000E07B01EB0020E880217C607C01EB002094
:101900002881A17CE07C01EB00206881217D607D45
:1019100001EB0020A881607E0006217E40EA0140A4
:10192000E17D40EA0120A17D08432882A17EE07E7E
:1019300001EB00206882217F607F01EB002000B274
:10194000E88101E0022700BF00BF00BF00BF3846AA
:10195000BDE8F88F2DE9F041ADF5467D06460F460E
:1019600000240125290281A8FEF7F5FB290241A8E0
:10197000FEF7F1FB290201A8FEF7EDFBA04600BF30
:101980002046611CCCB2C1A90E5401222046611C24
:10199000CCB2C1A90A542046611CCCB2C1A90F54D3
:1019A0002346C1AABB2181A8FEF723FC0546012DD1
:1019B00000D01BE04FF4FA7341AAA11D81A8FFF7E4
:1019C0001CFB0546012D00D010E001AABB2141A857
:1019D000FEF74AFC8046B8F1000F04D09DF80400E1
:1019E000012802D102E0022500E000BF00BF284626
:1019F0000DF5467DBDE8F0812DE9F041ADF5467D60
:101A000006460F4600240125290281A8FEF7A3FB04
:101A1000290241A8FEF79FFB290201A8FEF79BFBC4
:101A2000A04600BF2046611CCCB2C1A90E540122C1
:101A30002046611CCCB2C1A90A542046611CCCB21C
:101A4000C1A90F542346C1AAA32181A8FEF7D1FB47
:101A50000546012D00D01BE04FF4FA7341AAA11DE9
:101A600081A8FFF7CAFA0546012D00D010E001AAAF
:101A7000A32141A8FEF7F8FB8046B8F1000F04D07F
:101A80009DF80400012802D102E0022500E000BF19
:101A900000BF28460DF5467DBDE8F08100BFFEE79A
:101AA00000B585B000BF1748806940F008001549AF
:101AB00088610846806900F00800009000BF00BF00
:101AC00000BF0846806940F00400886108468069CC
:101AD00000F00400009000BF00BF00224FF440411E
:101AE0000948FEF7EFFD4FF44040019001200290BD
:101AF000002003900220049001A90348FEF75EFC39
:101B000005B000BD00100240000C014010B50C48AB
:101B10000C4908604FF4E1304860002109488160B9
:101B2000C16001610C21416100218161C161FFF748
:101B300037FB18B1422104A000F0B0FA10BD00003C
:101B400000380140140000202E2E2F5372632F7591
:101B5000736172742E63000000BFFEE770470000DF
:101B600002480068C0F30220704700000CED00E05E
:101B700010B5002807DA0A07140E054A00F00F0313
:101B80001B1FD45403E00A07130E024A135410BD5E
:101B900018ED00E000E400E07047000008B50849D7
:101BA0000968C9084FF47A72B1FBF2F14143009120
:101BB00000BF00BF00994A1E00920029F9D108BD5C
:101BC00010000020704710B5FEF788FDFFF711FAEE
:101BD00010BD000010B590B00220069001200A90C0
:101BE00010200B9002200D9000210E914FF46011F7
:101BF0000F9106A8FEF7AEFF18B1B42114A000F0B3
:101C00004DFA0F20019002200290002003904FF423
:101C10008060049000200590022101A8FEF758FE84
:101C200018B1C2210AA000F039FAFEF723FF4FF4E1
:101C30007A71B0FBF1F42046FFF7C1F90420FFF7F9
:101C4000A9F900221146501EFEF7EFFD10B010BD9D
:101C50002E2E2F5372632F6D61696E2E630000006C
:101C60001148006840F001000F49086008464068CC
:101C70000E4908400C494860084600680C49084075
:101C8000094908600846006820F48020086008467A
:101C9000406820F4FE0048604FF41F008860C803CD
:101CA0000449086070470000001002400000FFF87F
:101CB000FFFFF6FE08ED00E070B505466C6A0020F7
:101CC000E085E0842046FFF7C3F970BD0168C9686C
:101CD00021F490710268D1600168496921F0010125
:101CE00002685161202180F83A10704710B504460F
:101CF0002068C06820F040002168C860202084F877
:101D000039002046FFF7D9FB002010BD70B504460E
:101D100094F83A0022284AD1A068B0F5805F13D128
:101D2000A56A206940B920684068C0F3080028808F
:101D3000A06A801CA06219E020684068C0B22880B8
:101D4000A06A401CA06211E0206938B92068406890
:101D5000C1B2A26A501CA062117007E020684068FE
:101D600000F07F01A26A501CA0621170E08D401E3D
:101D700080B2E085C8B92068C06820F020002168E2
:101D8000C8602068C06820F480702168C86020683E
:101D9000406920F0010021684861202084F83A0061
:101DA0002046FFF719FB002070BD0020FCE7022051
:101DB000FAE700002DE9F04104460025206800699B
:101DC00020F44050E1680843216808612169A06857
:101DD00008436169084305432068C06841F20C610B
:101DE000884328432168C8602068406920F4407017
:101DF000A1690843216848615F49206888425CD135
:101E0000FEF74EFE00EBC00101EB00106168890097
:101E1000B0FBF1F6FEF744FE00EBC00101EB001051
:101E200061688900B0FBF1F06421B0FBF1F000EBD8
:101E3000C00101EB0010A6EB8000322101EB001085
:101E40006421B0FBF1F000F0F006FEF729FE00EB94
:101E5000C00101EB001061688900B0FBF1F0642162
:101E6000B0FBF1F006EB0016FEF71AFE00EBC00126
:101E700001EB001061688900B0FBF1F7FEF710FE7E
:101E800000EBC00101EB001061688900B0FBF1F0CC
:101E90006421B0FBF1F000EBC00101EB0010A7EBF7
:101EA0008000322101EB00106421B0FBF1F000F062
:101EB0000F003044216888605BE0FEF7E1FD00EB35
:101EC000C00101EB001061688900B0FBF1F6FEF77C
:101ED000D7FD00EBC00101EB001061688900B0FB89
:101EE000F1F06421B0FBF1F000EBC00101EB001058
:101EF000A6EB8000322101EB00106421B0FBF1F071
:101F000000F0F006FEF7BCFD00EBC00101EB001095
:101F100061688900B0FBF1F06421B0FBF1F006EBE1
:101F20000016FEF7ADFD00EBC00101EB001061688B
:101F30008900B0FBF1F7FEF7A3FD00EBC00101EB58
:101F4000001061688900B0FBF1F06421B0FBF1F092
:101F500000EBC00101EB0010A7EB8000322101EB88
:101F600000106421B0FBF1F000F00F003044216854
:101F70008860BDE8F081000000380140014691F81A
:101F8000390021282CD18868B0F5805F0FD10A6A0A
:101F90001088C0F308000B685860086918B9086A0F
:101FA000801C086209E0086A401C086205E00B6AB0
:101FB000581C086218780B685860C88C401E80B2A4
:101FC000C88458B90868C06820F080000B68D860E1
:101FD0000868C06840F040000B68D8600020704777
:101FE0000220FCE72DE9F04104460D4617469846CD
:101FF000069E21E0701CF8B12EB1FEF769FBA0EB44
:102000000800B04218D92068C06820F4D070216858
:10201000C8602068406920F00100216848612020E4
:1020200084F8390084F83A0000BF002084F83800B2
:1020300000BF0320BDE8F081206800682840A84266
:1020400001D1012000E00020B842D3D00020F1E708
:1020500010B50248FEF7FEFF10BD0000140000207E
:1020600070B504460D46164633462A4621460248B8
:10207000FFF70AF970BD00001400002070B5044697
:102080000D46164633462A4621460248FFF7AAF96E
:1020900070BD00001400002000BFFEE700BFFEE797
:1020A00002E008C8121F08C1002AFAD17047704721
:1020B000002001E001C1121F002AFBD1704700007F
:1020C00030B502464FF6FF7010E00446C51700EB2E
:1020D0001565C5F30F234FF6FF7404EA002014784A
:1020E0005C40054D35F814406040521C0C1EA1F1B7
:1020F0000105A9B2E9D130BD00260008ADF5946D07
:10210000FEF7F8FAFFF766FDFFF7CAFCFFF7FEFCE3
:102110000120A790A7A8FFF7D1F9012801D000203E
:10212000A790A7A8FFF767FA57E001210020FFF763
:1021300063FC0020294908700222A8A92848FFF75B
:1021400012F900BF254800780028FBD09DF8A002B6
:10215000F5283CD19DF8A1025F2838D100201F4905
:10216000087002220DF2A2211D48FFF7FCF800BF03
:102170001A4800780028FBD09DF8A2129DF8A3020F
:1021800001EB0020C4B232232246A9A91448FFF76C
:102190007BF8D8B906AA07A9A8A8FFF75DFA012815
:1021A0000ED1012281030F48FEF78CFA9DF818002A
:1021B00004280BD1142207A901A8FDF7B3FF05E0FD
:1021C00000224FF480410748FEF77CFA05E0002228
:1021D0004FF480410348FEF775FAA6E7000000209F
:1021E00014000020000C014000000000000000006E
:1021F00001020304060708090000000001020304AD
:1022000000000000B71DC1046E3B8209D926430DB2
:10221000DC7604136B6BC517B24D861A0550471E4A
:10222000B8ED08260FF0C922D6D68A2F61CB4B2BEA
:10223000649B0C35D386CD310AA08E3CBDBD4F3892
:1022400070DB114CC7C6D0481EE09345A9FD524132
:10225000ACAD155F1BB0D45BC2969756758B5652CA
:10226000C836196A7F2BD86EA60D9B6311105A676A
:1022700014401D79A35DDC7D7A7B9F70CD665E7412
:10228000E0B6239857ABE29C8E8DA1913990609572
:102290003CC0278B8BDDE68F52FBA582E5E664868A
:1022A000585B2BBEEF46EABA3660A9B7817D68B3AA
:1022B000842D2FAD3330EEA9EA16ADA45D0B6CA0D2
:1022C000906D32D42770F3D0FE56B0DD494B71D9F2
:1022D0004C1B36C7FB06F7C32220B4CE953D75CA0A
:1022E00028803AF29F9DFBF646BBB8FBF1A679FF2A
:1022F000F4F63EE143EBFFE59ACDBCE82DD07DEC52
:1023000077708634C06D4730194B043DAE56C539E1
:10231000AB0682271C1B4323C53D002E7220C12A19
:10232000CF9D8E1278804F16A1A60C1B16BBCD1F19
:1023300013EB8A01A4F64B057DD00808CACDC90C61
:1023400007AB9778B0B6567C69901571DE8DD47561
:10235000DBDD936B6CC0526FB5E6116202FBD06699
:10236000BF469F5E085B5E5AD17D1D576660DC5399
:1023700063309B4DD42D5A490D0B1944BA16D840E1
:1023800097C6A5AC20DB64A8F9FD27A54EE0E6A121
:102390004BB0A1BFFCAD60BB258B23B69296E2B2D9
:1023A0002F2BAD8A98366C8E41102F83F60DEE8759
:1023B000F35DA9994440689D9D662B902A7BEA9421
:1023C000E71DB4E0500075E4892636E93E3BF7EDA1
:1023D0003B6BB0F38C7671F7555032FAE24DF3FE59
:1023E0005FF0BCC6E8ED7DC231CB3ECF86D6FFCBD9
:1023F0008386B8D5349B79D1EDBD3ADC5AA0FBD8A1
:10240000EEE00C6959FDCD6D80DB8E6037C64F6400
:102410003296087A858BC97E5CAD8A73EBB04B77B8
:10242000560D044FE110C54B383686468F2B474278
:102430008A7B005C3D66C158E4408255535D435140
:102440009E3B1D252926DC21F0009F2C471D5E2880
:10245000424D1936F550D8322C769B3F9B6B5A3B38
:1024600026D6150391CBD40748ED970AFFF0560EF8
:10247000FAA011104DBDD014949B93192386521DC0
:102480000E562FF1B94BEEF5606DADF8D7706CFCC0
:10249000D2202BE2653DEAE6BC1BA9EB0B0668EFF8
:1024A000B6BB27D701A6E6D3D880A5DE6F9D64DA38
:1024B0006ACD23C4DDD0E2C004F6A1CDB3EB60C980
:1024C0007E8D3EBDC990FFB910B6BCB4A7AB7DB040
:1024D000A2FB3AAE15E6FBAACCC0B8A77BDD79A378
:1024E000C660369B717DF79FA85BB4921F467596B8
:1024F0001A163288AD0BF38C742DB081C330718500
:1025000099908A5D2E8D4B59F7AB085440B6C9504F
:1025100045E68E4EF2FB4F4A2BDD0C479CC0CD4367
:10252000217D827B9660437F4F460072F85BC176C7
:10253000FD0B86684A16476C93300461242DC565EF
:10254000E94B9B115E565A1587701918306DD81CCF
:10255000353D9F0282205E065B061D0BEC1BDC0FE7
:1025600051A69337E6BB52333F9D113E8880D03A47
:102570008DD097243ACD5620E3EB152D54F6D4296F
:102580007926A9C5CE3B68C1171D2BCCA000EAC88F
:10259000A550ADD6124D6CD2CB6B2FDF7C76EEDB27
:1025A000C1CBA1E376D660E7AFF023EA18EDE2EE07
:1025B0001DBDA5F0AAA064F4738627F9C49BE6FDAF
:1025C00009FDB889BEE0798D67C63A80D0DBFB840F
:1025D000D58BBC9A62967D9EBBB03E930CADFF97A7
:1025E000B110B0AF060D71ABDF2B32A66836F3A287
:1025F0006D66B4BCDA7B75B8035D36B5B440F7B12F
:1026000000002110422063308440A550C660E7706E
:10261000088129914AA16BB18CC1ADD1CEE1EFF116
:102620003112100273325222B5529442F772D662BE
:10263000399318837BB35AA3BDD39CC3FFF3DEE366
:102640006224433420040114E664C774A44485540E
:102650006AA54BB528850995EEE5CFF5ACC58DD5B6
:102660005336722611163006D776F6669556B4465E
:102670005BB77AA719973887DFF7FEE79DD7BCC706
:10268000C448E5588668A7784008611802282338AE
:10269000CCC9EDD98EE9AFF9488969990AA92BB956
:1026A000F55AD44AB77A966A711A500A333A122AFE
:1026B000FDDBDCCBBFFB9EEB799B588B3BBB1AABA6
:1026C000A66C877CE44CC55C222C033C600C411C4E
:1026D000AEED8FFDECCDCDDD2AAD0BBD688D499DF6
:1026E000977EB66ED55EF44E133E322E511E700E9E
:1026F0009FFFBEEFDDDFFCCF1BBF3AAF599F788F46
:102700008891A981CAB1EBA10CD12DC14EF16FE125
:102710008010A100C230E32004502540467067605D
:10272000B9839893FBA3DAB33DC31CD37FE35EF375
:10273000B1029012F322D2323542145277625672AD
:10274000EAB5CBA5A89589856EF54FE52CD50DC5C5
:10275000E234C324A01481046674476424540544FD
:10276000DBA7FAB79987B8975FE77EF71DC73CD715
:10277000D326F2369106B01657667676154634564D
:102780004CD96DC90EF92FE9C899E9898AB9ABA965
:102790004458654806782768C018E1088238A3289D
:1027A0007DCB5CDB3FEB1EFBF98BD89BBBAB9ABBB5
:1027B000754A545A376A167AF10AD01AB32A923AED
:1027C0002EFD0FED6CDD4DCDAABD8BADE89DC98D05
:1027D000267C076C645C454CA23C832CE01CC10C3D
:1027E0001FEF3EFF5DCF7CDF9BAFBABFD98FF89F55
:1027F000176E367E554E745E932EB23ED10EF01E8D
:10280000202800080000002014000000A02000087C
:102810003428000814000020440A0000B0200008FA
:102820000000000000000000100000000100000097
:0428300000A24A04B4
:04000005080000ED02
:00000001FF
